:0300000002088A69
:0C088A00787FE4F6D8FD7581080208575D
:10080000E4FDFCC3ED9FEC9E5015E4FBFA0BBB002E
:0F081000010ABA04F8BBFBF50DBD00010C80E432
:01081F0022B6
:10084000EF54F0FFE5A0540F4FF5A0D2917F027E48
:0708500000120800C2912212
:0F086C00A907C290120840E9C454F0FF020840E7
:0F087B00A907D290120840E9C454F0FF020840C8
:100820007F147E001208007F0212086C7F281208D5
:100830006C7F0C12086C7F0612086C7F0102086C3A
:0C089600758920758DFD759850D28E225A
:0808A2003098FDC298AF9922C5
:100857001208201208967F8012086C1208A28F08CF
:0508670012087B80F681
:00000001FF
